0000012756841300012300011932278900012511    CONTABILIZEI CONTABILIDADE LTDA - ME                AL DR CARLOS DE CARVALHO000603             ANDAR 12             CENTRO804301804106902                      CURITIBAPR4130226004 20000000030072019               OBRIGACOES@CONTABILIZEI.COM.BR                               CHARLES DAVYD GULARTE                        00391833944            29091981
00000227568413000123001CURSO PREPARATORIO GARRA LTDA ME                    R HOLANDA                               484   LOJA 3 ANDAR TERREO  BACACHERI          825101904106902CURITIBA                      PR4195913204 OBRIGACOES@CONTABILIZEI.COM.BR               85996052062000211100000000000000020181120000000000000000000000000000002        0000000000000 0000000000000000000000 0000000000000000000000 0000000000000000000000 000000000120000000000000 201                                                                                                 
0000032756841300012300220035209407HELOISA ROBERTO PINHEIRO DA SILVA                   010319861000000905184787933009439600003001062018020001175881442332251000    000000000000000000000000000000000000000000000000115000000115000000115000000115000000115000000115000000120176000033540110000350531222020000000002                              000000000000000000000000000000000000000000000000000000000000000000000000000000000000000000000759924460001490000000000000000000000000000000000000000000000000000410690200000000000000000000000000000000000022222 0000000
0000042756841300012300212761045523KEILA APARECIDA DA SILVA DE SOUZA                   040419811000000904095719974043379250002003072017020001536151444221051000    000127000000134333000147000000147000000147000000147000000147000000147000000147000000147000000147000000160230000073500110000801151222020000000002                              000000000000000000000000000000000000000000000000000000000000000000000000000000000000000000000759924460001490000000000000000000000000000000000000000000000000000410690200000000000000000000000000000000000022222 0000000
00000527568413000123009000001000002                                                                                                                                                                                                                                                                                                                                                                                                                                                                                                                                    

